S01E000052544F535F4C4142315F41544D45474133325F365F302E73726563C8
S11300000C942A000C9447000C9447000C9447006D
S11300100C9447000C9447000C9447000C94D102B4
S11300200C9447000C9447000C9447000C94470030
S11300300C9447000C9447000C9447000C94470020
S11300400C9447000C9447000C9447000C94470010
S11300500C94470011241FBECFE5D8E0DEBFCDBF0E
S113006010E0A0E6B0E0E0E2FAE102C005900D92F3
S1130070AA38B107D9F723E0AAE8B0E001C01D927D
S1130080AE36B207E1F70E9437050C940E0D0C94BE
S113009000000F931F93CF93DF938C010E949B0961
S11300A0C0918A00D0918B00CE01800F911F8835BA
S11300B022E0920750F4C817D90738F4C457DF4F29
S11300C090938B0080938A0002C0C0E0D0E00E942D
S11300D0400ACE01DF91CF911F910F9108950895A9
S11300E0C29889EF90E00197F1F700C00000C29A2E
S11300F08BED95E00197F1F700C000000895CF93D0
S1130100C82FC098C19888B38F7088BB88B39C2FC0
S1130110907F892B88BB0E94700088B38F7088BB46
S113012088B3C295C07FC82BC8BBCF910C94700014
S11301308FEF87BB84E088BB83E30E947F0082E368
S11301400E947F0088E20E947F008CE00C947F0074
S1130150CF93C82FC09AC19888B38F7088BB88B3D7
S11301609C2F907F892B88BB0E94700088B38F706E
S113017088BB88B3C295C07FC82BC8BBCF910C94F1
S11301807000813031F038F0823029F0833019F07A
S113019005C080EC01C080E8860F01C080E80C94A3
S11301A07F0081E00C947F00CF93DF93EC01899171
S11301B0882319F00E94A800FACFDF91CF91089507
S11301C0CF93DF93EC01862F642F0E94C100CE01F0
S11301D0DF91CF910C94D400FC0103969283818328
S11301E02FEF3FEF34832383968385839087878320
S11301F010820895FC01118610860895CF93DF9331
S1130200DC01FB0111962D913C911297E9018A8141
S11302109B8193838283358324838A819B81EC0130
S11302207D836C83E9017B836A8312967C936E934E
S11302301197B187A0878C918F5F8C93DF91CF91B9
S11302400895CF93DF93AC01DB018D919C911197BD
S11302508F3F2FEF920721F4EA01EF81F8850EC05A
S1130260FA01339622813381E90128813981821789
S1130270930720F00280F381E02DF4CF82819381F3
S113028013969C938E931297EC01BD83AC831596C1
S1130290FC93EE931497B383A28319965C934E93C5
S11302A01897FA0180818F5F8083DF91CF91089541
S11302B0CF93DF93FC01A281B3818481958115964C
S11302C09C938E931497C481D581BB83AA83A08504
S11302D0B18511968D919C911297E817F90721F435
S11302E01296DC93CE931197118610868C918150CF
S11302F08C93DF91CF91089531E1FC0130833197E4
S113030022E220833197A3E3A0833197608331975E
S1130310708331971082319760E86083319710823F
S1130320319762E06083319763E06083319764E0E2
S11303306083319765E06083319766E0608331972D
S113034067E06083319768E06083319769E0608398
S1130350319760E1608331973083319732E13083A4
S1130360319733E13083319734E13083319735E18C
S11303703083319736E13083319737E130833197D9
S113038038E13083319739E13083319730E230837B
S1130390319731E2308331972083319723E22083F0
S11303A03197408331975083319726E220833197E8
S11303B027E22083319728E22083319729E22083A2
S11303C0319720E32083319721E320838697089592
S11303D01BBC8CE78ABD8BE08EBD89B7806189BF69
S11303E0A0914903B0914A03CD91CDBFDD91DEBF09
S11303F0FF91EF91DF91CF91BF91AF919F918F9139
S11304007F916F915F914F913F912F911F910F9128
S1130410FF90EF90DF90CF90BF90AF909F908F9020
S11304207F906F905F904F903F902F901F900F9010
S11304300FBE0F90089581E008950F920FB6F894BF
S11304400F921F9211242F923F924F925F926F92BC
S11304507F928F929F92AF92BF92CF92DF92EF9250
S1130460FF920F931F932F933F934F935F936F9339
S11304707F938F939F93AF93BF93CF93DF93EF9328
S1130480FF93A0914903B0914A030DB60D920EB6A5
S11304900D920E94FF0AA0914903B0914A03CD91A5
S11304A0CDBFDD91DEBFFF91EF91DF91CF91BF9181
S11304B0AF919F918F917F916F915F914F913F91F8
S11304C02F911F910F91FF90EF90DF90CF90BF90ED
S11304D0AF909F908F907F906F905F904F903F90E0
S11304E02F901F900F900FBE0F9008950F920FB68C
S11304F0F8940F921F9211242F923F924F925F9281
S11305006F927F928F929F92AF92BF92CF92DF921F
S1130510EF92FF920F931F932F933F934F935F9309
S11305206F937F938F939F93AF93BF93CF93DF93F7
S1130530EF93FF93A0914903B0914A030DB60D9236
S11305400EB60D920E94A1090E94FF0AA0914903D0
S1130550B0914A03CD91CDBFDD91DEBFFF91EF9104
S1130560DF91CF91BF91AF919F918F917F916F91C7
S11305705F914F913F912F911F910F91FF90EF90B9
S1130580DF90CF90BF90AF909F908F907F906F90AF
S11305905F904F903F902F901F900F900FBE0F9041
S11305A008950E9476021895CF93DF93EC01942F5F
S11305B08C8D882399F1482F50E0911115C08C81BE
S11305C09D810E94EF0C2C8D8C819D81820F911D49
S11305D09D838C832A813B8182179307F8F088815D
S11305E099819D838C831AC08E819F810E94EF0C18
S11305F08C8D90E09195819591092E813F81280FF2
S1130600391F3F832E83488159812417350730F4DD
S11306102A813B81820F931F9F838E838A8D8F5FF4
S11306208A8FDF91CF910895FC01CB0160817181A4
S11306306115710599F0448D50E026813781240FAE
S1130640351F37832683A281B3812A173B0710F015
S113065077836683668177810C94EF0C08950F93FA
S11306601F93CF93DF93EC010FB6F8940F928C0194
S11306700F5E1F4F8E8D18166CF48989882351F0F4
S1130680C8010E94650B81110E94E00B8E8D815080
S11306908E8FF0CF8FEF8E8F0F900FBE0FB6F89422
S11306A00F928E01085F1F4F8D8D18166CF488858C
S11306B0882351F0C8010E94650B81110E94E00B50
S11306C08D8D81508D8FF0CF8FEF8D8F0F900FBE5A
S11306D0DF91CF911F910F910895CF92DF92EF9206
S11306E0FF920F931F93CF93DF938823A9F1F62EE4
S11306F0E82E8FE190E00E944900EC01892B61F122
S1130700CF2CD12CEF9C80011124C80101960E94AA
S11307104900998388830097E1F09C01200F311FE1
S11307203B832A831A8E9D838C830C191D09080F21
S1130730191F1F830E83EB8EFC8E8FEF8D8F8E8F90
S1130740CE0108960E94EC00CE0141960E94EC0076
S113075005C0CE010E946F00C0E0D0E0CE01DF9161
S1130760CF911F910F91FF90EF90DF90CF9008955C
S1130770AF92BF92DF92EF92FF920F931F93CF93AA
S1130780DF9300D000D01F92CDB7DEB78C017B0180
S11307905D834C83D22E80E0580198E0A90EB11CF1
S11307A00FB6F8940F92F801228D938D2917A8F4AF
S11307B04D2DB701C8010E94D402F8018189882314
S11307C041F0C80141960E94650B813011F40E94EA
S11307D01D020F900FBE81E050C02C813D81232B60
S11307E019F40F900FBE48C0811104C0CE010196C8
S11307F00E94A20B0F900FBE0E949B090FB6F894A3
S11308000F92F801858D8F3F09F4158EF801868DBE
S11308108F3F09F4168E0F900FBEBE016C5F7F4FA1
S1130820CE0101960E94AD0B811121C00FB6F89440
S11308300F92F801928D0F900FBE838D981311C003
S11308406C817D81C5010E94490BC8010E942F0360
S11308500E94400A882311F081E0A2CF0E941D0269
S1130860FBCFC8010E942F030E94400AF5CFC801A4
S11308700E942F030E94400A80E00F900F900F9077
S11308800F900F90DF91CF911F910F91FF90EF90F8
S1130890DF90BF90AF900895AF92BF92DF92EF9236
S11308A0FF920F931F93CF93DF9300D000D01F923A
S11308B0CDB7DEB78C017B015D834C83D22E80E003
S11308C0580191E1A90EB11C0FB6F8940F92F801EA
S11308D0928D992339F1A680B780B701C8010E948F
S11308E01403F801D1100FC0828D8150828F80854E
S11308F08823A1F0C80108960E94650B813071F429
S11309000E941D020BC0B782A6828189882331F020
S1130910C80141960E94650B8111F2CF0F900FBE62
S113092081E04FC02C813D81232B19F40F900FBE21
S113093047C0811104C0CE0101960E94A20B0F9002
S11309400FBE0E949B090FB6F8940F92F801858D93
S11309508F3F09F4158EF801868D8F3F09F4168EAA
S11309600F900FBEBE016C5F7F4FCE0101960E94B7
S1130970AD0B811120C00FB6F8940F92F801828D4F
S11309800F900FBE811111C06C817D81C5010E9441
S1130990490BC8010E942F030E94400A882311F0CA
S11309A081E092CF0E941D02FBCFC8010E942F0359
S11309B00E94400AF5CFC8010E942F030E94400AFA
S11309C080E00F900F900F900F900F90DF91CF91D8
S11309D01F910F91FF90EF90DF90BF90AF9008951B
S11309E01F93CF93DF9313E0C9E0D0E0AE0160E042
S11309F070E082E690E00E94E0002FE788E391E057
S1130A00215080409040E1F700C00000C1110E94D5
S1130A10D100219758F7C0E0D0E0AE0160E070E06B
S1130A2082E690E00E94E0009FE728E381E0915095
S1130A3020408040E1F700C000000E94D1002196D0
S1130A40CA30D10551F7115079F620E040E050E06A
S1130A5060E070E080914B0390914C030E94B803D6
S1130A6080E090E0DF91CF911F910C941E09AF922A
S1130A70BF92CF92DF92EF92FF920F930E94980061
S1130A809FEF9ABB8FE081BB82B3806F82BB14BAA5
S1130A9085B395BB60E081E00E946D0390934C03A5
S1130AA080934B03009739F020E040E050E060E091
S1130AB070E00E94B80320E04FEF5FEF60E070E069
S1130AC080914B0390914C030E944C04A12CB12CB7
S1130AD0C12CD12CE12CF12C02E020E030E042E8E2
S1130AE050E060E070E080EF94E00E94260801E0AE
S1130AF020E030E04AE550E060E070E089E296E012
S1130B000E94260803E020E030E048E750E060E07F
S1130B1070E085E897E00E9426080E94690980E059
S1130B2090E00F91FF90EF90DF90CF90BF90AF9047
S1130B3008958BB380958BBB2FEF84E39CE0215009
S1130B4080409040E1F700C0000008959098919A89
S1130B50929A939A849904C0849BFECF87E016C02E
S1130B60859904C0859BFECF88E010C0869904C097
S1130B70869BFECF89E00AC0879907C0879BFECF7A
S1130B8081E08093E70284E601C08BE69198909A15
S1130B90929A939A849904C0849BFECF84E014C0F3
S1130BA0859904C0859BFECF85E00EC0869904C05C
S1130BB0869BFECF86E008C0879906C081E08093BB
S1130BC0E702879BFECF84E79298909A919A939A32
S1130BD0849904C0849BFECF81E014C0859904C02D
S1130BE0859BFECF82E00EC0869904C0869BFECF13
S1130BF083E008C0879906C081E08093E702879B61
S1130C00FECF8DE69398909A919A929A849904C013
S1130C10849BFECF8FE60895859904C0859BFECF03
S1130C2080E00895869907C081E08093E702869B5F
S1130C30FECF85E60895879906C081E08093E70298
S1130C40879BFECF80E7089583B7896683BFBB9AED
S1130C500895CF93CEE041E050E060E070E08AE692
S1130C6090E00E94E00042E050E061E070E088E73C
S1130C7090E00E94E0002FEF84E39CE0215080404C
S1130C809040E1F700C000000E94D1002FE78AE104
S1130C9096E0215080409040E1F700C00000C15030
S1130CA0D1F60E9424062FEF30E0EAE0F0E0C9011B
S1130CB0BF010E94E40B6CBF8FE493EC0197F1F742
S1130CC000C0000021503F4F253F9AE0390779F7D3
S1130CD083B713BEC39A2FE78AE196E02150804080
S1130CE09040E1F700C000000E94240626EF39E09E
S1130CF0EAE0F0E0C901BF010E94E40B6CBF8FE49D
S1130D0093EC0197F1F700C000002F5F310991F7D0
S1130D1083B713BEC3989FE72AE186E09150204031
S1130D208040E1F700C0000080E090E0CF910C9497
S1130D301E092F923F924F925F926F927F928F92F1
S1130D409F92AF92BF92CF92DF92EF92FF920F9356
S1130D501F93CF93DF93CDB7DEB765970FB6F894A3
S1130D60DEBF0FBECDBF382FAE014F5F5F4F5A8B32
S1130D70498B80E1FA0111928A95E9F720E080E03D
S1130D8090E07AE0789FA001799F500D1124E22F22
S1130D90F0E0E35BFC4F8081FA01E80FF11DCF0125
S1130DA02F5F321778F740E020E030E05AE0529F9E
S1130DB0D001539FB00D1124E42FF0E0E35BFC4F0E
S1130DC02089FD01E20FF11D9F014F5F641778F741
S1130DD040916D034D36E1F048F4443641F5BF01CE
S1130DE00E94E40B862E672E972E19C0403769F0B7
S1130DF04437E9F48E9FA0018F9F500D9E9F500DA4
S1130E001124842E652E952E0AC0280F391F04C084
S1130E10AC014E1B5F0B9A01822E632E932E990C0C
S1130E209908792C492C592C292C392C08C0812C4F
S1130E30612C912C712C412C512C212C312C1B8A8E
S1130E40282D362D492D572DB201C101A0E00E9455
S1130E50CF0C79F181E090E08C0F9D1FEB898E0F10
S1130E60911D9D8B8C8B8AE0A82EB12CC12CD12C8A
S1130E70E12CF12C00E010E0282D362D492D572DC2
S1130E80B201C1010E94F80BEC89FD892083282D51
S1130E90362D492D572DB201C1010E94FA0B822E25
S1130EA0632E942E752E2B011C01FB89FF5FFB8B97
S1130EB0C7CF0E94D100AE014F5F5F4F4A01882D1A
S1130EC0F9898F1B2B89821738F4F40181914F0122
S1130ED0805D0E94A800F3CF65960FB6F894DEBF3C
S1130EE00FBECDBFDF91CF911F910F91FF90EF9077
S1130EF0DF90CF90BF90AF909F908F907F906F9036
S1130F005F904F903F902F90089520E04FEF5FEF58
S1130F1060E070E080914B0390914C030E944C047C
S1130F200E94A605C82F8B3629F485E090E00E9424
S1130F30AF0AF6CF8F3661F40E94D10080E30E949D
S1130F40A8001092E7021092E5021092E402E8CFA2
S1130F508091E702813081F18091E602D0E3DC0FD9
S1130F608130B1F48091E402811102C00E94D10069
S1130F708D2F0E94A8008091E402E82FF0E0E35B4B
S1130F80FC4FC08B1092E6028F5F8093E402C8CFBF
S1130F908091E502811102C00E94D1008D2F0E9430
S1130FA0A8008091E502E82FF0E0E35BFC4FC083EA
S1130FB08F5F8093E502B4CF1092E702C53649F4FF
S1130FC06091E4028091E5020E9499061092E50284
S1130FD0A7CF8093E602C0936D03A2CFCF93DF9394
S1130FE0E0914903F0914A03938382832091F002B4
S1130FF03091F1028217930770F460914903709164
S11310004A0380910603909107036E5F7F4FDF913F
S1131010CF910C942101EC016091490370914A0332
S113102080910803909109036E5F7F4F0E94210114
S11310308091600090916100C817D90720F4D09383
S11310406100C0936000DF91CF9108954F925F9249
S11310506F927F928F929F92AF92BF92CF92DF92C4
S1131060EF92FF920F931F93CF93DF932C013B01D9
S11310705A01490181E290E00E944900EC01892B68
S113108009F4CAC0C114D10421F4C5010E94490065
S113109001C0C601988F8F8B009721F4CE010E9466
S11310A06F00BAC0A50165EA70E00E94F80C21E067
S11310B0A21AB1088F89988DA80EB91E48E050E095
S11310C0B301CE0149960E94FF0C18A2102F0530DF
S11310D008F014E01E8B6E0182E0C80ED11CC6011C
S11310E00E94FA00CE010C960E94FA00D987C887A4
S11310F085E090E0811B91099D878C87DB8BCA8BEF
S1131100A401B201C5010E947C0199838883E11482
S1131110F10419F0F701D183C0830FB6F8940F924C
S11311208091F2028F5F8093F20280914903909143
S11311304A03892BB1F5D0934A03C09349038091A4
S1131140F2028130E9F58CE1E82E83E0F82E99E48F
S1131150A92E93E0B92EC7010E94EC00F9E0EF0E2E
S1131160F11CAE14BF04B9F783E193E00E94EC00D4
S11311708AE093E00E94EC008DEF92E00E94EC0084
S113118084EF92E00E94EC0083E193E090930903E2
S1131190809308038AE093E0909307038093060307
S11311A00FC08091ED0281110BC0E0914903F091D1
S11311B04A038689081720F0D0934A03C093490351
S11311C08E899091EF02981710F48093EF0290911A
S11311D0E8029F5F9093E8029091EE02981710F452
S11311E08093EE0229E0829FC0011124B601845E3F
S11311F09C4F0E94FE000F900FBE8091ED02882349
S113120049F0E0914903F0914A038689801710F46C
S11312100E941D0281E001C08FEFDF91CF911F91E9
S11312200F91FF90EF90DF90CF90BF90AF909F9081
S11312308F907F906F905F904F900895EF92FF9200
S11312400F931F93CF93DF93EC010FB6F8940F9293
S11312508091490390914A038C179D0711F02097C0
S113126039F40091490310914A03C0E0D0E001C071
S11312708E01780182E0E80EF11CC7010E9458013A
S1131280F80184899589892B21F0C8010C960E9464
S11312905801B70184EF92E00E94FE008091F302AE
S11312A08F5F8093F3028091E8028F5F8093E8025E
S11312B00F900FBE8091ED02882321F0CD2B11F405
S11312C00E941D02DF91CF911F910F91FF90EF902B
S11312D00895AF92BF92CF92DF92EF92FF920F9355
S11312E0A12CB12CC12CD12CE12CF12C00E020E05C
S11312F030E045E550E065E870E080ED9AE00E945A
S11313002608813081F4F8948093ED021092F10262
S11313101092F0020F91FF90EF90DF90CF90BF906A
S1131320AF900C94E8010F91FF90EF90DF90CF9075
S1131330BF90AF9008958091EC028F5F8093EC0290
S11313400895FF920F931F93CF93DF938091EC0244
S113135081118BC08091F0029091F10201969093DB
S1131360F1028093F0028091F0029091F102892BB6
S113137079F5809108039091090320910603309137
S11313800703309309032093080390930703809382
S113139006038091E9028F5F8093E902E0910803DC
S11313A0F09109038081811103C08FEF9FEF0CC07E
S11313B0E0910803F09109030580F681E02D068091
S11313C0F781E02D82819381909361008093600086
S11313D02091F0023091F1028091600090916100BF
S11313E02817390708F446C089E0F82EE09108036D
S11313F0F09109038081811103C08FEF9FEF12C028
S1131400E0910803F09109030580F681E02DC6817F
S1131410D7818A819B812091F0023091F1022817B3
S1131420390728F4909361008093600023C08E01F3
S11314300E5F1F4FC8010E9458018C899D89892B1A
S113144021F0CE010C960E9458018E899091EE02F3
S1131450981710F48093EE02F89EC0011124B8018D
S1131460845E9C4F0E94FE00C1CF8091EB028F5F8F
S11314708093EB02DF91CF911F910F91FF9008951C
S1131480EF92FF920F931F93CF93DF930FB6F894CD
S11314900F928091EC0281508093EC028091EC02D7
S11314A0882311F080E052C08091F2028823D1F3A6
S11314B010E009E08091FD02882351F1E0910203DC
S11314C0F0910303C681D781CE010C960E94580186
S11314D07E0182E0E80EF11CC7010E9458018E894A
S11314E09091EE02981710F48093EE02089FC001C9
S11314F01124B701845E9C4F0E94FE00E0914903D1
S1131500F0914A039E8986899817A0F211E0D2CF00
S11315108091EB02882361F08091EB02882351F0E3
S11315200E94A1098091EB0281508093EB02F4CFD9
S1131530113031F41092EA020E941D0281E006C0CB
S11315408091EA02813009F0ADCFF4CF0F900FBE45
S1131550DF91CF911F910F91FF90EF900895CF935A
S1131560DF93EC01892B19F40E941D0216C00E941E
S11315709B098091F0029091F102C80FD91F8091CC
S1131580490390914A0302960E945801CE010E9499
S1131590EE070E94400A882339F3DF91CF91089522
S11315A08091F302882341F10E949B09C091F402C7
S11315B00E94400ACC2301F10FB6F8940F92E091F7
S11315C0F902F091FA02C681D781CE0102960E94F7
S11315D058018091F20281508093F2028091F302CB
S11315E081508093F3020F900FBE8F89988D0E94D3
S11315F06F00CE010E946F000E949905D1CF8091A7
S1131600EC02882321F081E08093EA02089599E0B6
S1131610E091EE029E9FF0011124E45EFC4F808174
S1131620811106C08091EE0281508093EE02F0CFCA
S11316308091EE0290E049E0489F9001499F300D6F
S11316401124F901E45EFC4FA181B28112960D9040
S1131650BC91A02DB283A183215E3C4FA217B30796
S113166031F412962D913C9113973283218329E012
S1131670289FF001299FF00D1124E45EFC4F0180A6
S1131680F281E02D8681978190934A0380934903E8
S11316900895CF93DF93EB016091490370914A035E
S11316A0645F7F4F0E9421018091490390914A0316
S11316B002960E9458018091F0029091F1028C0FE1
S11316C09D1FDF91CF910C94EE070F931F93CF933F
S11316D0DF93DC011596ED91FC911697C681D781B5
S11316E08E01045F1F4FC8010E9458018091EC02D3
S11316F0811114C00A501109C8010E9458018E8931
S11317009091EE02981710F48093EE02B9E08B9F4B
S1131710C0011124B801845E9C4F03C0B8018DEF51
S113172092E00E94FE00E0914903F0914A0381E0B7
S11317302E899689291708F480E0DF91CF911F91B3
S11317400F9108952091E902FC0120832091F00279
S11317503091F1023283218308950FB6F8940F92E9
S11317602091E902DC013C911196ED91FC911297D4
S1131770321739F02091F0023091F1022E173F0711
S1131780D8F44091F0025091F102DB012D913C918B
S113179011974E1B5F0B4217530770F44091F002F0
S11317A05091F1024E1B5F0B241B350B2D933C9380
S11317B00E94A20B80E001C081E00F900FBE08954B
S11317C081E08093EA02089597FB072E16F40094B3
S11317D007D077FD09D00E94DB0C07FC05D03EF44E
S11317E0909581959F4F0895709561957F4F0895C9
S11317F0689401C0E894F92FF12B12F00C942C0C8E
S1131800A0E0B0E0E6E0FCE00C949E0C092E059408
S113181022F40E94880C112392F4F0E80F26FFEFC3
S1131820E094F09400951095B094C094D094A19451
S1131830BF0ACF0ADF0AEF0AFF0A0F0B1F0B0E9431
S1131840370C07FC0E94880CCDB7DEB7ECE00C9493
S1131850BA0C689401C0E8948F929F92CF93DF935F
S11318600E94370CDF91CF919F908F900895882428
S11318709924F401E401B0E49F93AA279A158B04F8
S11318809C04ED05FE05CF05D007A10798F4AD2F04
S1131890DC2FCF2FFE2FE92D982C892E982F872F00
S11318A0762F652F542F432F322F2227B85031F72C
S11318B0BF9127C01B2EBF91BB27220F331F441F8C
S11318C0551F661F771F881F991F881C991CEE1FC0
S11318D0FF1FCC1FDD1FAA1FBB1F8A149B04EC052E
S11318E0FD05CE05DF05A007B10748F08A189B085F
S11318F0EC09FD09CE09DF09A00BB10B21601A9494
S1131900E1F62EF49401AF01BE01CD01000C08955F
S1131910609570958095909530954095509521955A
S11319203F4F4F4F5F4F6F4F7F4F8F4F9F4F0895E4
S11319302F923F924F925F926F927F928F929F92DB
S1131940AF92BF92CF92DF92EF92FF920F931F93C9
S1131950CF93DF93CDB7DEB7CA1BDB0B0FB6F8947A
S1131960DEBF0FBECDBF09942A88398848885F84BA
S11319706E847D848C849B84AA84B984C884DF802B
S1131980EE80FD800C811B81AA81B981CE0FD11D0F
S11319900FB6F894DEBF0FBECDBFED01089500244D
S11319A0A7FD00942A173005400550056005700511
S11319B0800590050895AA1BBB1B51E107C0AA1F0F
S11319C0BB1FA617B70710F0A61BB70B881F991FDC
S11319D05A95A9F780959095BC01CD010895FB0116
S11319E0DC0102C001900D9241505040D8F7089597
S11319F0DC0101C06D9341505040E0F70895FB01B4
S1131A00DC014150504048F001900D920020C9F78C
S1131A1001C01D9241505040E0F70895F894FFCF63
S1131A20FFFF77656C636F6D65007072657373207B
S1131A30616E79206B657900746F20636F6E7469D1
S10D1A406E7565200049444C450012
S9030000FC
